{
  "contractName": "MedicalRecordsContract",
  "abi": [
    {
      "inputs": [],
      "payable": false,
      "stateMutability": "nonpayable",
      "type": "constructor"
    },
    {
      "anonymous": false,
      "inputs": [
        {
          "indexed": true,
          "internalType": "address",
          "name": "_address",
          "type": "address"
        }
      ],
      "name": "ContractInitialized",
      "type": "event"
    },
    {
      "anonymous": false,
      "inputs": [
        {
          "indexed": true,
          "internalType": "address",
          "name": "newAccount",
          "type": "address"
        },
        {
          "indexed": true,
          "internalType": "address",
          "name": "AuthorisedBy",
          "type": "address"
        }
      ],
      "name": "NewPersonnelAuthorised",
      "type": "event"
    },
    {
      "anonymous": false,
      "inputs": [
        {
          "indexed": true,
          "internalType": "address",
          "name": "user",
          "type": "address"
        }
      ],
      "name": "RecordCreated",
      "type": "event"
    },
    {
      "constant": true,
      "inputs": [
        {
          "internalType": "address",
          "name": "",
          "type": "address"
        }
      ],
      "name": "isAutherisedMedicalPersonnel",
      "outputs": [
        {
          "internalType": "bool",
          "name": "",
          "type": "bool"
        }
      ],
      "payable": false,
      "stateMutability": "view",
      "type": "function"
    },
    {
      "constant": false,
      "inputs": [
        {
          "internalType": "address",
          "name": "_account",
          "type": "address"
        }
      ],
      "name": "authoriseAccount",
      "outputs": [],
      "payable": false,
      "stateMutability": "nonpayable",
      "type": "function"
    },
    {
      "constant": true,
      "inputs": [
        {
          "internalType": "address",
          "name": "_user",
          "type": "address"
        }
      ],
      "name": "accessRecords",
      "outputs": [
        {
          "internalType": "string[]",
          "name": "",
          "type": "string[]"
        }
      ],
      "payable": false,
      "stateMutability": "view",
      "type": "function"
    },
    {
      "constant": false,
      "inputs": [
        {
          "internalType": "string",
          "name": "_records",
          "type": "string"
        }
      ],
      "name": "createRecord",
      "outputs": [
        {
          "internalType": "string",
          "name": "",
          "type": "string"
        }
      ],
      "payable": false,
      "stateMutability": "nonpayable",
      "type": "function"
    }
  ],
  "bytecode": "0x608060405234801561001057600080fd5b5060016000803373ffffffffffffffffffffffffffffffffffffffff1673ffffffffffffffffffffffffffffffffffffffff16815260200190815260200160002060006101000a81548160ff0219169083151502179055503373ffffffffffffffffffffffffffffffffffffffff167fb8bb5a08c752924168166e254455ca6708ef2ac4cfd39bba39eb5a5b89f0cbd660405160405180910390a2610abb806100ba6000396000f3fe608060405234801561001057600080fd5b506004361061004c5760003560e01c806355db670b14610051578063922e928c14610081578063b976f464146100b1578063db70504b146100cd575b600080fd5b61006b60048036036100669190810190610627565b6100fd565b6040516100789190610889565b60405180910390f35b61009b60048036036100969190810190610627565b61011d565b6040516100a89190610867565b60405180910390f35b6100cb60048036036100c69190810190610627565b61030d565b005b6100e760048036036100e29190810190610650565b610453565b6040516100f491906108a4565b60405180910390f35b60006020528060005260406000206000915054906101000a900460ff1681565b6060600115156000803373ffffffffffffffffffffffffffffffffffffffff1673ffffffffffffffffffffffffffffffffffffffff16815260200190815260200160002060009054906101000a900460ff16151514806101a857508173ffffffffffffffffffffffffffffffffffffffff163373ffffffffffffffffffffffffffffffffffffffff16145b6101e7576040517f08c379a00000000000000000000000000000000000000000000000000000000081526004016101de906108e6565b60405180910390fd5b600160008373ffffffffffffffffffffffffffffffffffffffff1673ffffffffffffffffffffffffffffffffffffffff168152602001908152602001600020805480602002602001604051908101604052809291908181526020016000905b82821015610302578382906000526020600020018054600181600116156101000203166002900480601f0160208091040260200160405190810160405280929190818152602001828054600181600116156101000203166002900480156102ee5780601f106102c3576101008083540402835291602001916102ee565b820191906000526020600020905b8154815290600101906020018083116102d157829003601f168201915b505050505081526020019060010190610246565b505050509050919050565b600115156000803373ffffffffffffffffffffffffffffffffffffffff1673ffffffffffffffffffffffffffffffffffffffff16815260200190815260200160002060009054906101000a900460ff1615151461039f576040517f08c379a0000000000000000000000000000000000000000000000000000000008152600401610396906108c6565b60405180910390fd5b60016000808373ffffffffffffffffffffffffffffffffffffffff1673ffffffffffffffffffffffffffffffffffffffff16815260200190815260200160002060006101000a81548160ff0219169083151502179055503373ffffffffffffffffffffffffffffffffffffffff168173ffffffffffffffffffffffffffffffffffffffff167f2309993683b9b2a59299fe5fb3b4f2a48f8a995f18735c73fd019ad6f37a2b1e60405160405180910390a350565b6060600160003373ffffffffffffffffffffffffffffffffffffffff1673ffffffffffffffffffffffffffffffffffffffff1681526020019081526020016000208290806001815401808255809150509060018203906000526020600020016000909192909190915090805190602001906104cf929190610519565b50503373ffffffffffffffffffffffffffffffffffffffff167f3f95a4dda3344c97120cdd763c9c1dd98fdb3ef45bb841de0314c396c083598260405160405180910390a2919050565b828054600181600116156101000203166002900490600052602060002090601f016020900481019282601f1061055a57805160ff1916838001178555610588565b82800160010185558215610588579182015b8281111561058757825182559160200191906001019061056c565b5b5090506105959190610599565b5090565b6105bb91905b808211156105b757600081600090555060010161059f565b5090565b90565b6000813590506105cd81610a61565b92915050565b600082601f8301126105e457600080fd5b81356105f76105f282610933565b610906565b9150808252602083016020830185838301111561061357600080fd5b61061e838284610a0e565b50505092915050565b60006020828403121561063957600080fd5b6000610647848285016105be565b91505092915050565b60006020828403121561066257600080fd5b600082013567ffffffffffffffff81111561067c57600080fd5b610688848285016105d3565b91505092915050565b600061069d8383610762565b905092915050565b60006106b08261096f565b6106ba818561099d565b9350836020820285016106cc8561095f565b8060005b8581101561070857848403895281516106e98582610691565b94506106f483610990565b925060208a019950506001810190506106d0565b50829750879550505050505092915050565b610723816109e2565b82525050565b600061073482610985565b61073e81856109bf565b935061074e818560208601610a1d565b61075781610a50565b840191505092915050565b600061076d8261097a565b61077781856109ae565b9350610787818560208601610a1d565b61079081610a50565b840191505092915050565b60006107a86030836109bf565b91507f4f6e6c7920617574686f72697365642075736572732063616e20617574686f7260008301527f697365206e6577204163636f756e7473000000000000000000000000000000006020830152604082019050919050565b600061080e6034836109bf565b91507f4f6e6c7920417574686f72697365642075736572732063616e2061636365737360008301527f206d65646963616c20496e666f726d6174696f6e0000000000000000000000006020830152604082019050919050565b6000602082019050818103600083015261088181846106a5565b905092915050565b600060208201905061089e600083018461071a565b92915050565b600060208201905081810360008301526108be8184610729565b905092915050565b600060208201905081810360008301526108df8161079b565b9050919050565b600060208201905081810360008301526108ff81610801565b9050919050565b6000604051905081810181811067ffffffffffffffff8211171561092957600080fd5b8060405250919050565b600067ffffffffffffffff82111561094a57600080fd5b601f19601f8301169050602081019050919050565b6000819050602082019050919050565b600081519050919050565b600081519050919050565b600081519050919050565b6000602082019050919050565b600082825260208201905092915050565b600082825260208201905092915050565b600082825260208201905092915050565b60006109db826109ee565b9050919050565b60008115159050919050565b600073ffffffffffffffffffffffffffffffffffffffff82169050919050565b82818337600083830152505050565b60005b83811015610a3b578082015181840152602081019050610a20565b83811115610a4a576000848401525b50505050565b6000601f19601f8301169050919050565b610a6a816109d0565b8114610a7557600080fd5b5056fea365627a7a7231582039536f7d2756b40d2a0d84b40ed391c7d1fb18949773dfbd8ae7eec4617dc2766c6578706572696d656e74616cf564736f6c63430005100040",
  "source": "//SPDX-License-Identifier: Unlicensed\r\npragma solidity >= 0.4.0 < 0.7.0;\r\npragma experimental ABIEncoderV2;\r\n\r\ncontract MedicalRecordsContract{\r\n    \r\n    mapping (address => bool) public isAutherisedMedicalPersonnel;\r\n    mapping (address => string[]) records;\r\n    \r\n    event ContractInitialized(address indexed _address);\r\n    event RecordCreated(address indexed user);\r\n    event NewPersonnelAuthorised(address indexed newAccount, address indexed AuthorisedBy);\r\n    \r\n    constructor() public {\r\n        isAutherisedMedicalPersonnel[msg.sender] = true;\r\n        emit ContractInitialized(msg.sender);\r\n    }\r\n    \r\n    function authoriseAccount(address _account) public{\r\n        require(isAutherisedMedicalPersonnel[msg.sender] == true, \"Only authorised users can authorise new Accounts\");\r\n        \r\n        isAutherisedMedicalPersonnel[_account] = true;\r\n        emit NewPersonnelAuthorised(_account, msg.sender);\r\n    }\r\n    \r\n    function accessRecords(address _user) public view returns (string[] memory){\r\n        require(isAutherisedMedicalPersonnel[msg.sender] == true || msg.sender == _user, \"Only Authorised users can access medical Information\");\r\n        \r\n        return records[_user];\r\n    }\r\n    \r\n    function createRecord(string memory _records) public returns (string memory){\r\n        records[msg.sender].push(_records);\r\n        emit RecordCreated(msg.sender);\r\n    }\r\n}",
  "sourcePath": "/home/samarth/Blockchain/Projects/MedicalRecords/contracts/MedicalRecordsContract.sol",
  "compiler": {
    "name": "solc",
    "version": "0.5.16+commit.9c3226ce.Emscripten.clang"
  },
  "schemaVersion": "3.0.23",
  "updatedAt": "2020-06-03T10:26:36.257Z",
  "networkType": "ethereum",
  "devdoc": {
    "methods": {}
  },
  "userdoc": {
    "methods": {}
  }
}